:020000040000FA
:0200000013D01B
:0200080092D391
:0800100007AC2BFFFFFFFFFF0F
:0200180045D1D0
:08002000300003FF00000001A5
:08002800756A746A7F9E7F9CDB
:100030007F80733C02D068EF05F074D8AFD8FAD84F
:10004000E7D840D806D8010160A110EF08F00300FE
:10005000FED7939C8A8C01016F6708D017D88A9CC1
:1000600015D88A8C13D88A9C938C12001DD88A9C30
:100070001BD88A8C19D88A9C17D88A8C15D88A9C48
:1000800013D88A8C11D88A9C938C120001010B0E14
:10009000586FFA0E576FFA0E566F562FFED7572F1E
:1000A000FAD7582FF6D712000101150E586FFA0E25
:1000B000576FFA0E566F562FFED7572FFAD7582F75
:1000C000F6D7120001016F6B0F015D93928280B22F
:1000D00003D80F015D83120001016F699B8C11D859
:1000E00001D812008B92949203D802D89482120005
:1000F000000E546F000E556F552FFED7542FFAD7B0
:1001000012000F0159937D6A440EAF6E080EA76E60
:10011000040EAC6E900EAB6E01012E6B2F6B9F8A9E
:100120009D8A120016D8F86AF76A280EF66E18D85B
:10013000100EF718FCE1F86AF76A100EF66E19D87F
:1001400021D8E86602D005D81200939C8A7C9EDFF5
:10015000FCD701010F6B606B636B626B616B12000C
:100160000900F5CFE8FF632703E3622B01E3612B6E
:10017000120001EE64F0030E0900F5CFEEFFE82E49
:10018000FBD7120001016451611907E16551621941
:1001900004E16651631901E1000C010CF86A100ECC
:1001A000F76E200EF66EDCDF800EF718FCE1F86AC1
:1001B000100EF76EF66ADDDFE5DFE86626D0F86A36
:1001C000100EF76E100EF66E01EE67F0040E0900C9
:1001D000F5CFEEFFE82EFBD7F86AF76A200EF66E31
:1001E00001EE6BF0040E0900F5CFEEFFE82EFBD711
:1001F00067516B1907E168516C1904E169516D1978
:1002000001E105D06081608702D0608160851200C5
:10021000D18ED198D180D38ED390D392D08C0F0130
:10022000FF0E596FFF0E586FFB0E576FD08EF28E78
:10023000F28C1200800E6F6E6EAEFED7726A210EC7
:10024000706E0E01010E436FBC0E446F010E456FC0
:10025000F86BF96BFA6BFB6BFC6BFD6BFE6BFF6B6A
:10026000E1877F9E7F9C756A260E746E01EE33F0E7
:10027000020E7F8073CFEEFF742AE82EFAD7440E69
:10028000606E0F01306F0101080E356F306B230E69
:10029000766E786A93869394000E6F6E0E6B6EBEC8
:1002A000FED71200D8CF90F1E8CF91F1E0CF92F1D4
:1002B0009ECF93F1B7CF94F177CF95F16ECF96F1B2
:1002C0006FCF97F1E9CF98F1EACF99F1E1CF9AF1A9
:1002D000E2CF9BF1F5CF9CF1F6CF9DF1F7CF9EF1E8
:1002E000F8CF9FF1F2CFA0F17FCFA1F173CFA2F1B0
:1002F00075CFA3F174CFA4F192CFA5F1C0CFA6F131
:10030000C1CFA7F1C2CFA8F15DCFA9F1C3CFAAF1A8
:10031000C4CFABF158CFAEF1ABCFACF1ACCFADF1B8
:1003200071CFAFF138D890C1D8FF91C1E8FF97C124
:100330006FFF98C1E9FF99C1EAFF9AC1E1FF9BC134
:10034000E2FF9CC1F5FF9DC1F6FF9EC1F7FF9FC173
:10035000F8FFA1C17FFFA2C173FFA3C175FFA4C1B4
:1003600074FFA5C192FFA6C1C0FFA7C1C1FFA8C16C
:10037000C2FFA9C15DFFAAC1C3FFABC1C4FFAEC12B
:1003800058FF010160B104D092C1E0FF20EF08F0F6
:1003900092C1E0FF1000F9506E500E0BF92627D0E5
:1003A00006D025D024D023D00CD017D020D071ACCB
:1003B00006D00F01309FF10E6F16609E719C779AE8
:1003C00016D0F10E6F160A0E6F1260BE02D0779231
:1003D0000ED00ED8779221D80AD0F10E6F1660BEDB
:1003E00002D0779004D004D8779017D800D01200AC
:1003F0000FEE60F011EE00F00E0EEECFE6FFE82EED
:10040000FCD70101029902B30289029300B702836B
:1004100002950297609E0E691200010102B102D09E
:10042000200E016112003451091944E133510819B9
:1004300041E1100E011904E0110E011936E0F2D766
:10044000000E021901E15CD2100E021901E16AD21C
:10045000200E021901E166D2300E021901E152D0DC
:10046000400E021901E14ED0500E021901E15FD099
:10047000600E021901E15BD0700E021901E18AD011
:10048000B00E021901E1BFD0C00E021901E1BBD0CC
:10049000D00E021901E1EAD0E00E021901E1E6D026
:1004A000F00E021901E110D1BDD7100E021901E1C1
:1004B0000BD1B8D7E86A091904E03451091901E0F1
:1004C000B1D7E86A081B01E0ADD7100E011901E0B1
:1004D000A9D7100E021901E125D2300E021901E14F
:1004E00011D0500E021901E122D0B00E021901E123
:1004F0008AD0D00E021901E1B9D0F00E021901E143
:10050000E3D090D7F86AF76A200EF66E01EE36F067
:10051000080E0900F5CFEEFFE82EFBD701C131F13F
:1005200002C132F13281080E356FEBD87BD760A162
:1005300017D01F0E316F100E326F3281080E356FDB
:1005400060C136F161C137F162C138F163C139F17F
:100550003A693B69030E3C6F040E3D6FD2D862D7F7
:10056000F86A100EF76E100EF66E01EE36F0060EFB
:100570000900F5CFEEFFE82EFBD7030E3C6F040E0B
:100580003D6F01C131F102C132F13281080E356F88
:10059000B8D848D7F86AF76A260EF66E0900F5CF84
:1005A00033F10800F5CF34F1F29E7F9E7F9C7F846B
:1005B000756A260E746E33C173FF550E7E6EAA0ED9
:1005C0007E6E7F82B7ACFED7B79C742A34C173FFAE
:1005D000550E7E6EAA0E7E6E7F82B7ACFED7B79C9C
:1005E0007F94F28E01C131F102C132F13281080EE5
:1005F000356F36693769386939693A693B693C69E9
:100600003D697FD80FD70F01589B5D810101928012
:10061000120EC06E000EC16E010EC26EC282C2B258
:10062000FED7C4CF36F1C3CF37F1E8CFE8FFE8CF2C
:10063000E8FFE8CFE8FFE8CFE8FFE8CFE8FF790E72
:10064000C26EC282C2B2FED7C4CF38F1C3CF39F175
:10065000010101C131F102C132F13281080E356F61
:100660003A693B693C693D694CD8DCD601EE36F00D
:100670007F9E7F9C756A300E746E080E7F8073CFEC
:10068000EEFF742AE82EFAD701C131F102C132F12E
:100690003281080E356F35D860B6FED701EE36F0E0
:1006A0007F9E7F9C380E746E080E7F8073CFEEFFA6
:1006B000742AE82EFAD701C131F102C132F1328138
:1006C000080E356F1ED8AED63F0EF86EFF0EF76ED1
:1006D000FE0EF66E01EE36F0020E0900F5CFEEFFCB
:1006E000E82EFBD701C131F102C132F13281080E8F
:1006F000356F386939693A693B693C693D6901D8A8
:1007000091D632B902D0329301D032833287080EAB
:100710006F6E60960FEE61F002D86086120011EEE7
:1007200031F00D0EE6CFEEFFE82EFCD71200E0CF41
:1007300072F101016F6701D06FD0D8CF70F1E8CFAF
:1007400071F19ECF73F1B7CF74F177CF75F16ECFA2
:1007500076F16FCF77F1E9CF78F1EACF79F1E1CF98
:100760007AF1E2CF7BF1F5CF7CF1F6CF7DF1F7CFD7
:100770007EF1F8CF7FF1F2CF80F17FCF81F173CF9F
:1007800082F175CF83F174CF84F192CF85F1C0CF20
:1007900086F1C1CF87F1C2CF88F15DCF89F1C3CF98
:1007A0008AF1C4CF8BF1ABCF8CF1ACCF8DF158CFA8
:1007B0008EF171CF8FF13AD870C1D8FF71C1E8FFC7
:1007C00078C1E9FF79C1EAFF7AC1E1FF7BC1E2FFAD
:1007D0007CC1F5FF7DC1F6FF7EC1F7FF7FC1F8FF49
:1007E00081C17FFF82C173FF83C175FF84C174FF24
:1007F00085C192FF86C1C0FF87C1C1FF88C1C2FF0A
:1008000089C15DFF8AC1C3FF8BC1C4FF8CC1ABFF2F
:100810008DC1ACFF8EC158FF010160B104D072C11F
:10082000E0FF18EF08F072C1E0FF10009EAA13D09D
:1008300001012E6B2F6B1AD811EE10F0ABB20CD059
:100840000ED8E86607D09EAAF9D715D80FD8AECF34
:10085000E6FFF4D71AD81200AB98AB88FCD7522F1A
:10086000000C516701D0010C5107000C7DCF51F1F4
:10087000AFCF52F112002F2B1E0E2F651200010E6A
:100880002F6F2E2B11EE10F012000101050E2F1903
:1008900001E01200AA0E101901E0FBD7A50E1419F1
:1008A00001E0F7D7526B1151522712515227525182
:1008B000131901E0EED7100E111904E0110E1119F1
:1008C0001AE0E7D7000E121901E11AD0200E121912
:1008D00001E128D0400E121901E126D0600E121954
:1008E00001E135D0C00E121901E160D0E00E1219FD
:1008F00001E18CD0CED7100E121901E1B1D0C9D7C9
:10090000756A746A7368F29E7F9E7F9C7F84550E21
:100910007E6EAA0E7E6E7F82B7ACFED7B79C7F94A8
:10092000AC9AFF00AC9AFF00F86AF76A200EF66EE8
:1009300001EE43F0080E0900F5CFEEFFE82EFBD7DD
:1009400011C141F112C142F14281A5D8A2D760A1E3
:1009500015D01F0E416F100E426F428160C143F1EE
:1009600061C144F162C145F163C146F1476948691B
:10097000030E496F040E4A6F8ED88BD7F86A100E9B
:10098000F76E100EF66E01EE43F0060E0900F5CF7D
:10099000EEFFE82EFBD7030E496F040E4A6F11C11C
:1009A00041F112C142F1428176D873D70F01589BB1
:1009B00092805D810101120EC06E000EC16E010EAB
:1009C000C26EC282C2B2FED7C4CF43F1C3CF44F1DC
:1009D000E8CFE8FFE8CFE8FFE8CFE8FFE8CFE8FF9F
:1009E000E8CFE8FF790EC26EC282C2B2FED7C4CF92
:1009F00045F1C3CF46F14769486949694A6911C160
:100A000041F112C142F1428146D843D701EE43F091
:100A10007F9E7F9C756A300E746E080E7F8073CF48
:100A2000EEFF742AE82EFAD711C141F112C142F14A
:100A3000428131D89EA8FED701EE43F07F9E7F9C75
:100A4000380E746E080E7F8073CFEEFF742AE82E86
:100A5000FAD711C141F112C142F142811CD819D714
:100A60003F0EF86EFF0EF76EFE0EF66E01EE43F0CF
:100A7000020E0900F5CFEEFFE82EFBD74569466967
:100A80004769486949694A6911C141F112C142F196
:100A9000428101D8FED60101AA0E406FA50E4C6F0F
:100AA0004B6B11EE41F00A0E536FE6CFE8FF4B2778
:100AB000532FFBD7AC8A11EE40F00D0E536F9EA85A
:100AC000FED7E6CFADFF532FFAD7ACA2FED7120068
:100AD0002DD879D80AD8040060BEB4D001016F6760
:100AE00001D0F9D79EBAB7D1F6D701016F6B0F01CC
:100AF0005D93928280B203D80F015D8312009B8CBC
:100B000001016F6902D82FD91200D0A812008B9270
:100B1000949203D802D894821200000E546F000EF3
:100B2000556F552FFED7542FFAD712000101939C11
:100B30008A8CF3DFF2DF8A9C938C1200080EEECFD2
:100B4000E6FFE82EFCD712000F010F0E216F266979
:100B50002769030E286F040E296F2A692B692C69F7
:100B60002D69208712000F0126692769030E286F5F
:100B7000040E296F2A692B692C692D690F0161CF39
:100B800021FF20871200756A746A736A7F9E7F9CBA
:100B90007F84550E7E6EAA0E7E6E7F82B7ACFED726
:100BA000B79CFF000FEE66F011EE06F0C7DF01EE16
:100BB00006F01FEE26F0C2DFE1DF42D00101F00EA9
:100BC00006194FE083D06F8E6EAEFED7726A210E8B
:100BD000706E0E01010E436FBC0E446F010E456F27
:100BE000F86BF969FA69FB690F01756A260E746E74
:100BF0007F9E7F9C7F8073CF23FF742A090E226F14
:100C0000100E616E7F8073CF24FF0E01080EE16F1E
:100C100023CFE2FE24CFE3FEE56FE66BE76B0F0127
:100C2000400E606E308F080E256F206BF29E93860B
:100C300093946F6A6EBEFED796DF12004CD784DFA6
:100C4000609EFCD7010E61189EE060B0F9D7020EDD
:100C5000611899E0030E6118A5E0040E6118AEE07A
:100C6000EED70101040E0761EAD7010E0B191DE052
:100C7000020E0B1901E0E3D70FEE66F007C175FF16
:100C800008C174FF7F9E7F9C7F84080E5A6FEECF51
:100C900073FF550E7E6EAA0E7E6E7F82B7ACFED7B6
:100CA000B79C742A5A2FF3D77F940FEE26F07F9EBD
:100CB0007F9C07C175FF08C174FF080E7F8073CF4A
:100CC000EEFF742AE82EFAD759DFBAD7010106C120
:100CD000F8FF07C1F7FF08C1F6FF066704D0100E42
:100CE000076101D0ACD7010E0B1933E0020E0B19CE
:100CF00016E0030E0B1901E0A2D7F6503F0B9FE15F
:100D00007F8E7F9C7F847F88550E7E6EAA0E7E6EBE
:100D10007F82B7ACFED7B79C08C1F6FF1AD0F65059
:100D2000070B8DE10FEE66F0080EEECFF5FF0D001C
:100D3000E82EFBD70A007F8E7F9C7F84550E7E6E47
:100D4000AA0E7E6E7F82B7ACFED7B79C7F9408C197
:100D5000F6FF0FEE26F0080E0900F5CFEEFFE82EA5
:100D6000FBD70CDF6DD79B8C7D6A440EAF6E080EEF
:100D7000A76E040EAC6E900EAB6ECFDE17D81200CD
:100D8000080EEECFE6FFE82EFCD7120001010F0E91
:100D9000416F010E426F43694469030E456F040EB3
:100DA000466F4769486949694A6916D00101100EC2
:100DB000416F010E426F43694469030E456F040E93
:100DC000466F4769486949694A6906D0010111C1FE
:100DD00041F112C142F142810101AA0E406FA50EFC
:100DE0004C6F4B6B11EE41F00A0E5C6FE6CFE8FFE3
:100DF0004B275C2FFBD7AC8A11EE40F00D0E5C6FD9
:100E00009EA8FED7E6CFADFF5C2FFAD71200756A19
:100E1000746A736A7F9E7F9C7F84550E7E6EAA0ED5
:100E20007E6E7F82B7ACFED7B79CAC9AFF0001EE16
:100E300013F011EE23F0A4DF01EE13F011EE43F0F6
:100E40009FDFC4DF05D00101F00E23194DE081D0F2
:100E500042D69CDFFDD701012E6B2F6B07DD11EE13
:100E600010F0ABB20AD00CD8E8661AD09EAAF9D717
:100E70000DD809D8AECFE6FFF4D7AB98AB88E9D749
:100E80005D3F000C010CBC0E5D6F12002F2B0D0E90
:100E90002F651200010E2F6F2E2B11EE10F0120095
:100EA0000101000E2E19D5E10D0E2F19D2E1AA0E67
:100EB0001019CFE1A50E1C19CCE15F6B11EE11F0FA
:100EC0000A0E5E6FE6CFE8FF5F275E2FFBD75F510C
:100ED0001B19BFE1020E11199AE0030E1119A7E0C8
:100EE000040E1119B0E0B4D70101040E2461B1D78A
:100EF000010E28191DE0020E281901E0AAD701EE03
:100F000013F024C175FF25C174FF7F9E7F9C7F84F1
:100F1000080E5B6FEECF73FF550E7E6EAA0E7E6ECF
:100F20007F82B7ACFED7B79C742A5B2FF3D77F9430
:100F300001EE43F07F9E7F9C24C175FF25C174FFA5
:100F4000080E7F8073CFEEFF742AE82EFAD73EDFBB
:100F50007FD7010123C1F8FF24C1F7FF25C1F6FFA8
:100F6000236704D0100E246101D073D7010E281915
:100F700036E0020E281917E0030E281901E069D7A0
:100F8000F6503F0B01E065D77F8E7F9C7F847F8882
:100F9000550E7E6EAA0E7E6E7F82B7ACFED7B79CD2
:100FA00025C1F6FF1CD0F650070B01E052D701EE29
:100FB00013F0080EEECFF5FF0D00E82EFBD70A0068
:100FC0007F8E7F9C7F84550E7E6EAA0E7E6E7F8202
:100FD000B7ACFED7B79C7F94B79C25C1F6FF01EE56
:100FE00043F0080E0900F5CFEEFFE82EFBD7EEDE4A
:020FF0002FD7F9
:021000000000EE
:020000040030CA
:0100000015EA
:0100010003FB
:010002002AD3
:010003002ECE
:010005008971
:010006009168
:0100080000F7
:0100090000F6
:01000A000FE6
:01000B008074
:01000C000FE4
:01000D0000F2
:0200000400F00A
:020000000000FE
:020026000001D7
:00000001FF
